:1000000075907075A00875B00012009975A09012D7
:10001000009975A01012009975A0E012009975A0C2
:100020006012009975A0A012009975A02012009985
:1000300075A0C012009975A04012009975A0801299
:10004000009975A00012009902004B7590D075A020
:100050000075B0E012009975B06012009975B0A0FB
:1000600012009975B02012009975B0C012009975F0
:10007000B04012009975B08012009975B00012005E
:10008000990200847590B075A00075B000120099B7
:10009000120099120099020000780679FF7AFFDABF
:0600A000FED9FAD8F62299
:00000001FF
